{
  "abi": [
    {
      "inputs": [
        {
          "internalType": "bytes32",
          "name": "namespace",
          "type": "bytes32"
        },
        {
          "internalType": "uint64",
          "name": "daHeight",
          "type": "uint64"
        }
      ],
      "name": "RetrieveBlock",
      "outputs": [
        {
          "internalType": "bytes",
          "name": "",
          "type": "bytes"
        }
      ],
      "stateMutability": "view",
      "type": "function"
    },
    {
      "inputs": [
        {
          "internalType": "bytes32",
          "name": "namespace",
          "type": "bytes32"
        },
        {
          "internalType": "bytes",
          "name": "data",
          "type": "bytes"
        }
      ],
      "name": "SubmitBlock",
      "outputs": [],
      "stateMutability": "nonpayable",
      "type": "function"
    },
    {
      "inputs": [
        {
          "internalType": "bytes32",
          "name": "",
          "type": "bytes32"
        },
        {
          "internalType": "uint256",
          "name": "",
          "type": "uint256"
        }
      ],
      "name": "namespaceToDaHeightBlock",
      "outputs": [
        {
          "internalType": "bytes",
          "name": "",
          "type": "bytes"
        }
      ],
      "stateMutability": "view",
      "type": "function"
    }
  ],
  "bytecode": {
    "object": "0x608060405234801561001057600080fd5b5061054a806100206000396000f3fe608060405234801561001057600080fd5b50600436106100415760003560e01c806304648bf21461004657806361fa1ba61461006f578063f90a969f14610084575b600080fd5b610059610054366004610217565b610097565b6040516100669190610239565b60405180910390f35b61008261007d3660046102a5565b610139565b005b610059610092366004610321565b610161565b6000602081815292815260408082209093529081522080546100b89061035e565b80601f01602080910402602001604051908101604052809291908181526020018280546100e49061035e565b80156101315780601f1061010657610100808354040283529160200191610131565b820191906000526020600020905b81548152906001019060200180831161011457829003601f168201915b505050505081565b600083815260208181526040808320438452909152902061015b82848361042f565b50505050565b60008281526020818152604080832067ffffffffffffffff8516845290915290208054606091906101919061035e565b80601f01602080910402602001604051908101604052809291908181526020018280546101bd9061035e565b801561020a5780601f106101df5761010080835404028352916020019161020a565b820191906000526020600020905b8154815290600101906020018083116101ed57829003601f168201915b5050505050905092915050565b6000806040838503121561022a57600080fd5b50508035926020909101359150565b600060208083528351808285015260005b818110156102665785810183015185820160400152820161024a565b5060006040828601015260407fffffffffffffffffffffffffffffffffffffffffffffffffffffffffffffffe0601f8301168501019250505092915050565b6000806000604084860312156102ba57600080fd5b83359250602084013567ffffffffffffffff808211156102d957600080fd5b818601915086601f8301126102ed57600080fd5b8135818111156102fc57600080fd5b87602082850101111561030e57600080fd5b6020830194508093505050509250925092565b6000806040838503121561033457600080fd5b82359150602083013567ffffffffffffffff8116811461035357600080fd5b809150509250929050565b600181811c9082168061037257607f821691505b6020821081036103ab577f4e487b7100000000000000000000000000000000000000000000000000000000600052602260045260246000fd5b50919050565b7f4e487b7100000000000000000000000000000000000000000000000000000000600052604160045260246000fd5b601f82111561042a57600081815260208120601f850160051c810160208610156104075750805b601f850160051c820191505b8181101561042657828155600101610413565b5050505b505050565b67ffffffffffffffff831115610447576104476103b1565b61045b83610455835461035e565b836103e0565b6000601f8411600181146104ad57600085156104775750838201355b7fffffffffffffffffffffffffffffffffffffffffffffffffffffffffffffffff600387901b1c1916600186901b178355610543565b6000838152602090207fffffffffffffffffffffffffffffffffffffffffffffffffffffffffffffffe0861690835b828110156104fc57868501358255602094850194600190920191016104dc565b5086821015610537577fffffffffffffffffffffffffffffffffffffffffffffffffffffffffffffffff60f88860031b161c19848701351681555b505060018560011b0183555b505050505056",
    "linkReferences": {}
  },
  "methodIdentifiers": {
    "RetrieveBlock(bytes32,uint64)": "f90a969f",
    "SubmitBlock(bytes32,bytes)": "61fa1ba6",
    "namespaceToDaHeightBlock(bytes32,uint256)": "04648bf2"
  },
  "id": 0
}