{
  "abi": [
    {
      "inputs": [
        {
          "internalType": "uint64",
          "name": "daHeight",
          "type": "uint64"
        }
      ],
      "name": "RetrieveBlock",
      "outputs": [
        {
          "internalType": "bytes",
          "name": "",
          "type": "bytes"
        }
      ],
      "stateMutability": "view",
      "type": "function"
    },
    {
      "inputs": [
        {
          "internalType": "bytes",
          "name": "data",
          "type": "bytes"
        }
      ],
      "name": "SubmitBlock",
      "outputs": [],
      "stateMutability": "nonpayable",
      "type": "function"
    },
    {
      "inputs": [
        {
          "internalType": "bytes32",
          "name": "",
          "type": "bytes32"
        },
        {
          "internalType": "uint256",
          "name": "",
          "type": "uint256"
        }
      ],
      "name": "namespaceToDaHeightBlock",
      "outputs": [
        {
          "internalType": "bytes",
          "name": "",
          "type": "bytes"
        }
      ],
      "stateMutability": "view",
      "type": "function"
    }
  ],
  "bytecode": {
    "object": "0x608060405234801561001057600080fd5b5061055f806100206000396000f3fe608060405234801561001057600080fd5b50600436106100415760003560e01c806304648bf2146100465780631bf031171461006f578063f67842d914610082575b600080fd5b610059610054366004610243565b610097565b6040516100669190610265565b60405180910390f35b61005961007d3660046102d1565b610139565b610095610090366004610302565b610205565b005b6000602081815292815260408082209093529081522080546100b890610374565b80601f01602080910402602001604051908101604052809291908181526020018280546100e490610374565b80156101315780601f1061010657610100808354040283529160200191610131565b820191906000526020600020905b81548152906001019060200180831161011457829003601f168201915b505050505081565b67ffffffffffffffff811660009081527f38ae8ef281b887668f109f0e66074e9e2f82bfaba85afe9bcf77c23a73e2ef616020526040902080546060919061018090610374565b80601f01602080910402602001604051908101604052809291908181526020018280546101ac90610374565b80156101f95780601f106101ce576101008083540402835291602001916101f9565b820191906000526020600020905b8154815290600101906020018083116101dc57829003601f168201915b50505050509050919050565b4360009081527f38ae8ef281b887668f109f0e66074e9e2f82bfaba85afe9bcf77c23a73e2ef616020526040902061023e828483610444565b505050565b6000806040838503121561025657600080fd5b50508035926020909101359150565b600060208083528351808285015260005b8181101561029257858101830151858201604001528201610276565b5060006040828601015260407fffffffffffffffffffffffffffffffffffffffffffffffffffffffffffffffe0601f8301168501019250505092915050565b6000602082840312156102e357600080fd5b813567ffffffffffffffff811681146102fb57600080fd5b9392505050565b6000806020838503121561031557600080fd5b823567ffffffffffffffff8082111561032d57600080fd5b818501915085601f83011261034157600080fd5b81358181111561035057600080fd5b86602082850101111561036257600080fd5b60209290920196919550909350505050565b600181811c9082168061038857607f821691505b6020821081036103c1577f4e487b7100000000000000000000000000000000000000000000000000000000600052602260045260246000fd5b50919050565b7f4e487b7100000000000000000000000000000000000000000000000000000000600052604160045260246000fd5b601f82111561023e57600081815260208120601f850160051c8101602086101561041d5750805b601f850160051c820191505b8181101561043c57828155600101610429565b505050505050565b67ffffffffffffffff83111561045c5761045c6103c7565b6104708361046a8354610374565b836103f6565b6000601f8411600181146104c2576000851561048c5750838201355b7fffffffffffffffffffffffffffffffffffffffffffffffffffffffffffffffff600387901b1c1916600186901b178355610558565b6000838152602090207fffffffffffffffffffffffffffffffffffffffffffffffffffffffffffffffe0861690835b8281101561051157868501358255602094850194600190920191016104f1565b508682101561054c577fffffffffffffffffffffffffffffffffffffffffffffffffffffffffffffffff60f88860031b161c19848701351681555b505060018560011b0183555b505050505056",
    "linkReferences": {}
  },
  "methodIdentifiers": {
    "RetrieveBlock(uint64)": "1bf03117",
    "SubmitBlock(bytes)": "f67842d9",
    "namespaceToDaHeightBlock(bytes32,uint256)": "04648bf2"
  },
  "id": 0
}