{
  "abi": [
    {
      "inputs": [
        {
          "internalType": "bytes32",
          "name": "namespace",
          "type": "bytes32"
        }
      ],
      "name": "GetLatestBlock",
      "outputs": [
        {
          "internalType": "bytes",
          "name": "",
          "type": "bytes"
        }
      ],
      "stateMutability": "view",
      "type": "function"
    },
    {
      "inputs": [
        {
          "internalType": "bytes32",
          "name": "namespace",
          "type": "bytes32"
        },
        {
          "internalType": "bytes",
          "name": "data",
          "type": "bytes"
        }
      ],
      "name": "SubmitBlock",
      "outputs": [],
      "stateMutability": "nonpayable",
      "type": "function"
    },
    {
      "inputs": [
        {
          "internalType": "bytes32",
          "name": "",
          "type": "bytes32"
        }
      ],
      "name": "namespaceToLatestBlock",
      "outputs": [
        {
          "internalType": "bytes",
          "name": "",
          "type": "bytes"
        }
      ],
      "stateMutability": "view",
      "type": "function"
    }
  ],
  "bytecode": {
    "object": "0x608060405234801561001057600080fd5b506104df806100206000396000f3fe608060405234801561001057600080fd5b50600436106100415760003560e01c806361fa1ba614610046578063787a086c1461005b578063c5a5036814610084575b600080fd5b6100596100543660046101f2565b610097565b005b61006e61006936600461026e565b6100b6565b60405161007b9190610287565b60405180910390f35b61006e61009236600461026e565b610158565b60008381526020819052604090206100b08284836103c4565b50505050565b60008181526020819052604090208054606091906100d390610322565b80601f01602080910402602001604051908101604052809291908181526020018280546100ff90610322565b801561014c5780601f106101215761010080835404028352916020019161014c565b820191906000526020600020905b81548152906001019060200180831161012f57829003601f168201915b50505050509050919050565b6000602081905290815260409020805461017190610322565b80601f016020809104026020016040519081016040528092919081815260200182805461019d90610322565b80156101ea5780601f106101bf576101008083540402835291602001916101ea565b820191906000526020600020905b8154815290600101906020018083116101cd57829003601f168201915b505050505081565b60008060006040848603121561020757600080fd5b83359250602084013567ffffffffffffffff8082111561022657600080fd5b818601915086601f83011261023a57600080fd5b81358181111561024957600080fd5b87602082850101111561025b57600080fd5b6020830194508093505050509250925092565b60006020828403121561028057600080fd5b5035919050565b600060208083528351808285015260005b818110156102b457858101830151858201604001528201610298565b5060006040828601015260407fffffffffffffffffffffffffffffffffffffffffffffffffffffffffffffffe0601f8301168501019250505092915050565b7f4e487b7100000000000000000000000000000000000000000000000000000000600052604160045260246000fd5b600181811c9082168061033657607f821691505b60208210810361036f577f4e487b7100000000000000000000000000000000000000000000000000000000600052602260045260246000fd5b50919050565b601f8211156103bf57600081815260208120601f850160051c8101602086101561039c5750805b601f850160051c820191505b818110156103bb578281556001016103a8565b5050505b505050565b67ffffffffffffffff8311156103dc576103dc6102f3565b6103f0836103ea8354610322565b83610375565b6000601f841160018114610442576000851561040c5750838201355b7fffffffffffffffffffffffffffffffffffffffffffffffffffffffffffffffff600387901b1c1916600186901b1783556104d8565b6000838152602090207fffffffffffffffffffffffffffffffffffffffffffffffffffffffffffffffe0861690835b828110156104915786850135825560209485019460019092019101610471565b50868210156104cc577fffffffffffffffffffffffffffffffffffffffffffffffffffffffffffffffff60f88860031b161c19848701351681555b505060018560011b0183555b505050505056",
    "linkReferences": {}
  },
  "methodIdentifiers": {
    "GetLatestBlock(bytes32)": "787a086c",
    "SubmitBlock(bytes32,bytes)": "61fa1ba6",
    "namespaceToLatestBlock(bytes32)": "c5a50368"
  },
  "id": 0
}